:020000040800F2
:10000000F0180020450100082D1200082F120008EA
:10001000391200083D1200084112000800000000DB
:100020000000000000000000000000004512000871
:100030004712000800000000491200084B12000897
:100040005F0100085F0100085F0100085F01000810
:100050005F0100085F0100085F0100085F01000800
:100060005F0100085F0100085F0100085F010008F0
:100070005F0100085F0100085F0100085F010008E0
:10008000551200085F0100085F0100085F010008C9
:100090005F0100085F0100085F0100085F010008C0
:1000A0005F0100085F0100085F0100085F010008B0
:1000B0005F0100085F0100085F0100085F010008A0
:1000C0005F0100085F0100085F0100085F01000890
:1000D0005F010008531200085F010008A11B00081F
:1000E0005F0100085F0100085F0100085F01000870
:1000F0005F0100085F0100085F0100085F01000860
:100100005F0100085F0100085F0100085F0100084F
:100110005F0100085F0100085F0100085F0100083F
:100120005F0100085F0100085F0100085F0100082F
:10013000DFF80CD003F01EF90048004781110008D9
:10014000F01800200648804706480047FEE7FEE713
:10015000FEE7FEE7FEE7FEE7FEE7FEE7FEE7FEE777
:1001600047020008310100080CB500200190009002
:100170006C48006840F480306A49086000BF6948F4
:10018000006800F4003000900198401C0190009835
:1001900018B90198B0F5A06FF1D16248006800F479
:1001A000003010B10120009001E000200090009884
:1001B000012843D15C48006840F010005A490860AB
:1001C0000846006820F0030008600846006840F018
:1001D0000200086053484068524948600846406839
:1001E00048600846406840F48060486008464068BF
:1001F00020F47C1048600846406840F4E8104860ED
:100200000846006840F08070086000BF45480068FC
:1002100000F000700028F9D04248406820F0030048
:10022000404948600846406840F00200486000BF0E
:100230003C48406800F00C000828F9D10CBD10B50E
:10024000FFF792FF10BD10B53648006840F001007E
:1002500034490860084640683449084031494860DC
:1002600008460068324908402E4908600846006880
:1002700020F4802008600846406820F4FE004860B2
:100280004FF41F008860FFF7DAFF4FF00060294944
:10029000086010BD10B5002100200022214B5B68D2
:1002A00003F00C0121B1042906D0082928D107E068
:1002B000214B224C236027E01F4B204C236023E07E
:1002C000184B5B6803F47010164B5B6803F48032C4
:1002D000022303EB904022B9194B4343174C236090
:1002E0000DE0104B5B6803F4003323B1144B434320
:1002F000124C236003E0104B4343104C236003E097
:100300000D4B0E4C236000BF00BF064B5B68C3F370
:1003100003130C4CE15C094B1B68CB40074C23607A
:1003200010BD000000100240002002400000FFF855
:10033000FFFFF6FE08ED00E000127A00000000204A
:1003400000093D000400002031490143314A116099
:10035000704770B5002100230F22C47804B32D4CE0
:10036000246804F4E064C4F5E064210AC1F10403E4
:10037000CA40447804FA03F1847814402143090107
:10038000254C0678A155047804F01F050124AC40E3
:1003900005786D11AD0005F1E025C5F8004109E0D3
:1003A000047804F01F050124AC401C4D067876113A
:1003B00045F8264070BD1A4A0A400243154B1B1FE0
:1003C0001A60704739B1134A121D12680243114B6B
:1003D0001B1D1A6006E00F4A121D126882430D4B66
:1003E0001B1D1A607047042808D14FF0E0210969ED
:1003F00041F004014FF0E022116107E04FF0E021ED
:10040000096921F004014FF0E022116170470000FA
:100410000000FA050CED00E000E400E080E100E0FF
:1004200080FFFF1F01684FF6FE721140016000213E
:10043000016041608160C1608D49884208D18C496A
:100440000839496841F00F01894A083A51608AE049
:1004500087491431884208D185490839496841F0F3
:10046000F001834A083A51607DE081492831884291
:1004700008D17F490839496841F470617C4A083ADB
:10048000516070E07A493C31884208D17849083996
:10049000496841F47041764A083A516063E0744912
:1004A0005031884208D172490839496841F47021B5
:1004B0006F4A083A516056E06D496431884208D16C
:1004C0006B490839496841F47001694A083A51603A
:1004D00049E067497831884208D165490839496857
:1004E00041F07061624A083A51603CE061498842DB
:1004F00006D1011F096841F00F01021F116032E0AF
:100500005C491431884208D15A49091F096841F0F1
:10051000F001584A121F116025E0564928318842DF
:1005200008D15449091F096841F47061514A121FEA
:10053000116018E04F493C31884208D14D49091FEC
:10054000096841F470414B4A121F11600BE04949A0
:100550005031884207D14749091F096841F4702189
:10056000444A121F1160704710B50022026847F616
:10057000F0739A430C6A8B6823430C6923434C69DC
:1005800023438C692343CC6923434C6A23438C6AFD
:1005900023431A430260CB6843600B6883604B6857
:1005A000C36010BD0021016041608160C1600161D4
:1005B00041618161C161016241628162704721B123
:1005C000026842F00102026004E002684FF6FE7326
:1005D0001A40026070471AB103680B43036002E0DF
:1005E00003688B4303607047416070470146486869
:1005F00080B2704701460020002201F080531BB1F9
:100600001C4B083B1A6802E0194B083B1A6802EAC7
:1006100001030BB1012000E00020704700F0805181
:1006200019B11449091F086002E0114908394860EE
:10063000704701460020002201F080531BB10D4B92
:10064000083B1A6802E00A4B083B1A6802EA0103F9
:100650000BB1012000E00020704700F0805119B17B
:100660000449091F086002E00149083948607047E1
:10067000080002400804024010B50446CC488442F9
:1006800008D10121042000F02DFB0021042000F0FE
:1006900029FB46E0C748844208D10121082000F028
:1006A00021FB0021082000F01DFB3AE0C2488442F3
:1006B00008D10121102000F015FB0021102000F0CE
:1006C00011FB2EE0BD48844208D10121202000F01A
:1006D00009FB0021202000F005FB22E0B8488442FD
:1006E00008D10121402000F0FDFA0021402000F057
:1006F000F9FA16E0B348844208D10121802000F0C5
:10070000F1FA0021802000F0EDFA0AE0AE488442C0
:1007100007D10121801500F0E5FA0021A01500F0B5
:10072000E1FA10BD10B50121084600F0DBFA002106
:10073000012000F0D7FA10BD2DE9F0410246002556
:100740000026002000230024002791F803C00CF0AD
:100750000F0591F803C00CF0100CBCF1000F03D092
:1007600091F802C04CEA050591F800C0BCF1000FF9
:1007700031D0146800202BE04FF0010C0CFA00F38C
:10078000B1F800C00CEA03069E4220D183004FF06E
:100790000F0C0CFA03F7BC4305FA03FC4CEA040403
:1007A00091F803C0BCF1280F06D14FF0010C0CFAF0
:1007B00000FCC2F814C00AE091F803C0BCF1480F75
:1007C00005D14FF0010C0CFA00FCC2F810C0401C1F
:1007D0000828D1D31460B1F800C0BCF1FF0F34DD9C
:1007E000546800202EE000F1080C4FF0010808FAD0
:1007F0000CF3B1F800C00CEA03069E4221D183003D
:100800004FF00F0C0CFA03F7BC4305FA03FC4CEA5B
:10081000040491F803C0BCF1280F05D100F1080CC5
:1008200008FA0CF8C2F8148091F803C0BCF1480F24
:1008300007D100F1080C4FF0010808FA0CF8C2F8D3
:100840001080401C0828CED35460BDE8F0814FF6DC
:10085000FF710180022181700421C170704702463E
:10086000002093680B400BB1012000E0002070478E
:100870000146886880B2704702460020D3680B406A
:100880000BB1012000E0002070470146C86880B22B
:10089000704701617047416170470AB1016100E032
:1008A00041617047C16070474FF480320A438261F2
:1008B0008161826182698269704702460020434BF0
:1008C00018684FF68073184040EA021008433F4B07
:1008D000186070473E49C8617047F0B50A4600236A
:1008E00000240021002500F00046B6F1004F02D19F
:1008F000364EF16901E0354E7168C0F3034583B2AD
:1009000000F44016B6F5401F08D121F070612F4E5B
:10091000766826F070662D4F7E6012E000F4801637
:10092000B6F5801F06D1032606FA05F4A14341F06F
:10093000706106E0460D360103FA06F6B14341F058
:10094000706122B1460D360103FA06F6314300F01C
:100950000046B6F1004F02D11C4EF16101E01B4E82
:100960007160F0BD30B500228B071C0F0F2303FA16
:1009700004F2164B08338C1053F824309343134C75
:1009800008348D1044F8253023468C1053F8243059
:100990008C07240F00FA04F423430C4C08348D1008
:1009A00044F8253030BD0A49DC310860704700004A
:1009B00000080140000C01400010014000140140FB
:1009C00000180140001C01400020014000000140CF
:1009D00000002042DF48006840F00100DD49086067
:1009E00008464068DC490840DA4948600846006823
:1009F000DA490840D74908600846006820F480209A
:100A000008600846406820F4FE0048604FF41F006C
:100A100088607047CF49096821F48031CD4A116060
:100A20001146096821F480211160B0F5803F03D0A0
:100A3000B0F5802F0ED106E0C649096841F4803137
:100A4000C44A116007E0C349096841F4A021C14AC2
:100A5000116000E000BF00BF704710B501460022E2
:100A6000002300204A11012A02D1BA4C236806E073
:100A7000022A02D1B74C236A01E0B64C636A01F046
:100A80001F02012494401C400CB1012000E0002012
:100A900010BD38B5002000900024002500BF312093
:100AA000FFF7DBFF05460098401C00900098B0F56A
:100AB000A06F01D0002DF2D03120FFF7CEFF08B19A
:100AC000012400E00024204638BD01460020A14A50
:100AD000106820F0F80040EAC10010607047A0499B
:100AE00008607047024600209A4B586820F47C103A
:100AF00042EA01031843974B5860704798490866CB
:100B0000704701460020934A506820F003000843D4
:100B1000506070478F48406800F00C0070470146F5
:100B200000208C4A506820F0F00008435060704765
:100B300001460020874A506820F4E0600843506076
:100B4000704701460020834A506820F4605040EA14
:100B5000C1005060704729B17E4A527A02437D4BF2
:100B60005A7204E07B4A527A82437A4B5A72704737
:100B70007B49D8310860704701460020754A5068AB
:100B800020F440400843506070470021714A2032F1
:100B90001170704A82F82010012802D004280AD16E
:100BA00004E001216B4A2032117005E00521694AF9
:100BB0002032117000E000BF00BF70476949086033
:100BC00070476449096A0143624A11627047654986
:100BD00044390860704730B500210022002400230A
:100BE0005C4D6D6805F00C0121B1042905D0082980
:100BF00023D105E05C4D056022E05B4D05601FE000
:100C0000544D6D6805F47012524D6D6805F48034D2
:100C1000022505EB92421CB9544D554305600BE08B
:100C20004C4D6D6805F400351DB1504D55430560C0
:100C300002E04D4D5543056002E04B4D056000BF9D
:100C400000BF444D6D6805F0F0010909484D6B5C2B
:100C50000568DD4045603F4D6D6805F4E061090AB7
:100C6000434D6B5C4568DD4085603A4D6D6805F429
:100C70006051C90A3E4D6B5C4568DD40C560354D2D
:100C80006D6805F44041890B3A4D6B5CC568B5FB56
:100C9000F3F5056130BD29B12E4A526902432D4B4F
:100CA0005A6104E02B4A526982432A4B5A617047C9
:100CB00029B1284A92690243264B9A6104E0254AE9
:100CC00092698243234B9A61704729B1214AD269C4
:100CD0000243204BDA6104E01E4AD26982431D4B75
:100CE000DA61704729B11B4AD2680243194BDA60B6
:100CF00004E0184AD2688243164BDA60704729B183
:100D0000144A12690243134B1A6104E0114A126932
:100D10008243104B1A61704712494039086070478E
:100D20000F49C86470470B49C87170470948406A49
:100D300040F0807007494862704701460020054A2C
:100D400092680A400AB1012000E000207047014982
:100D500088727047001002400000FFF8FFFFF6FEA7
:100D6000000042428004424200127A0000093D0025
:100D7000140000202400002010B50446FB488442E3
:100D800009D101218803FFF7ADFF00214FF4804016
:100D9000FFF7A8FF32E0F648844209D10121480458
:100DA000FFF7ADFF00214FF40030FFF7A8FF25E06B
:100DB000F048844209D101218804FFF7A0FF0021F7
:100DC0004FF48020FFF79BFF18E0EB48844209D1E5
:100DD0000121C804FFF793FF00214FF40020FFF723
:100DE0008EFF0BE0E548844208D101210805FFF79A
:100DF00086FF00214FF48010FFF781FF10BD2DE921
:100E0000F04786B005460E460024A24600BFA14624
:100E10000027B08900B100BF2F462C8A4CF6FF7026
:100E20000440F08804432C82AC894EF6F310044051
:100E3000B08831890843718908430443AC81AC8A86
:100E40004FF6FF400440B0890443AC8201A8FFF78D
:100E5000C2FEC648874202D1DDF810A001E0DDF8ED
:100E60000CA0A88900F4004040B10AEBCA0000EBD6
:100E70000A1031684900B0FBF1F807E00AEBCA003C
:100E800000EB0A1031688900B0FBF1F86420B8FB70
:100E9000F0F004012009642101FB1089A88900F405
:100EA000004040B1322000EBC900B0FBF1F000F08F
:100EB0000700044308E0322000EB09106421B0FB76
:100EC000F1F000F00F0004432C8106B0BDE8F0877C
:100ED0004FF41651016000218180C18001810C21F5
:100EE000418100218181704710B502460020108A9F
:100EF0004FF2FF0318400B884C8823438C88234310
:100F0000CC8823431843108210BD0021018041800A
:100F10008180C180704721B1828942F40052828170
:100F200004E082894DF6FF731A4082817047F0B564
:100F30000346002400260025002040F66A17B94227
:100F400000D100BF1846C1F3421401F01F0601276B
:100F500007FA06F5012C01D10C3004E0022C01D176
:100F6000103000E014301AB107682F43076002E028
:100F70000768AF430760F0BD1AB1838A0B438382D1
:100F800002E0838A8B4383827047028A4FF6F073B4
:100F90001A400282028A0A430282704782894FF213
:100FA000FF731A40828182890A438281704721B18E
:100FB000828942F00202828104E082894FF6FD7349
:100FC0001A4082817047028A4FF6DF731A4002820C
:100FD000028A0A430282704721B1028A42F48042A7
:100FE000028204E0028A4BF6FF731A4002827047C5
:100FF000C1F308028280704701468888C0F3080068
:101000007047818941F0010181817047028BD2B222
:101010000283028B42EA012202837047028B02F4B0
:101020007F420283028B0A430283704721B1828A86
:1010300042F02002828204E0828A4FF6DF731A4077
:101040008282704721B1828A42F01002828204E0DB
:10105000828A4FF6EF731A408282704721B1828AEA
:1010600042F00802828204E0828A4FF6F7731A4047
:101070008282704721B1828942F40042828103E07A
:101080008289C2F30E028281704721B1828A42F4C2
:101090000062828204E0828A4FF2FF731A408282E9
:1010A0007047828A4FF6FB731A408282828A0A4313
:1010B0008282704721B1828A42F00202828204E079
:1010C000828A4FF6FD731A408282704702460020E2
:1010D000B1F5007F00D100BF13880B400BB1012098
:1010E00000E00020704701F40072B2F5007F00D1EB
:1010F00000BFCA430280704770B502460024002337
:101100000025002040F66A16B14200D100BFC1F3AD
:10111000421501F01F03012606FA03F3012D02D147
:101120009689334006E0022D02D1168A334001E051
:10113000968A33400C12012606FA04F416883440CD
:1011400013B10CB1012000E0002070BD10B50022E9
:10115000002340F66A14A14200D100BF0A12012404
:101160009440A3B2DC43048010BD0000003801406D
:101170000044004000480040004C00400050004047
:10118000ADF53C7D00F074F800F0D8F800F0DBF924
:101190002EE0684600F02CF94FF4B472694662A85C
:1011A00001F041FD012308225BA963A800F0ECF9DE
:1011B0005F9A60995E98CDE9012100905C98421C8D
:1011C0005B9800F26C710BA05D9B02F00FFB7599B0
:1011D0007498CDE90001729C22460DA0739B02F029
:1011E00005FB4FF47A7000F08AF80EA002F0FEFAC8
:1011F000CFE70000CAB1BCE4A3BA25642D25642D55
:1012000025642025643A25643A25640D0A0000000F
:10121000CEB3B6C8A3BA25662CBEADB6C825660D3A
:101220000A0D0A00746573740D0A000070470BA064
:1012300002F0DCFA00BFFEE700BFFEE700BFFEE7FA
:1012400000BFFEE770477047704710B500F063F8C5
:1012500010BD704710B500F02AF910BD0D0A2068C6
:101260006172646661756C74206572720D0A0000AB
:1012700030B52D4800682D4AB0FBF2F1B1F1807F06
:1012800001D301201DE021F07F40401E4FF0E022FD
:10129000506150170F22002807DA13071D0E244B48
:1012A00000F00F04241F1D5503E013071C0E214BF3
:1012B0001C5400BF00204FF0E02290610720106115
:1012C000002008B100BFFEE74FF0E020006920F0E9
:1012D00001004FF0E021086130BD01B516490098CA
:1012E00008604FF0E020006940F001004FF0E0217D
:1012F000086100BF104800680028FBD108BD01B597
:1013000003E04FF47A70FFF7E8FF0098411E009168
:101310000028F6D108BD0848006820B106480068DA
:10132000401E0549086070470000002040420F0041
:1013300018ED00E000E400E02800002000B585B0D2
:10134000012144F20400FFF7B3FC4FF40070ADF844
:10135000100018208DF8130003208DF8120004A946
:101360002148FFF7E9F94FF48060ADF81000042040
:101370008DF8130004A91C48FFF7DEF94FF4E130A3
:1013800000900020ADF80400ADF80600ADF80800AC
:10139000ADF80C000C20ADF80A0069461348FFF7C1
:1013A0002EFD01211148FFF7B6FD05B000BD70B557
:1013B00004460D46E1B20D48FFF71AFE00BF80213A
:1013C0000A48FFF783FE0028F9D0204670BD10B50B
:1013D000044600BF20210548FFF778FE0028F9D019
:1013E0000248FFF709FE10BD000801400038014027
:1013F00030B5E1B00446002500F0F2FB1B49016066
:1014000000F0EEFB1A49416006A800F03FFC01A87D
:1014100001F090F800BF174800780028FBD006AB19
:101420004FF48072144901A801F000FA002011491C
:10143000087000BF114800780028FBD006AB4FF4BD
:1014400080720F4901A801F0F1F900200B490870E2
:10145000012505B1002501A801F0A8F84FF4B472E8
:1014600006A9204601F0DFFB61B030BD531500082E
:10147000551500082D000020600000202C000020E1
:101480006001002008B54FF4C060FEF75DFF10203A
:101490008DF8000001208DF8010000208DF8020079
:1014A00001208DF803006846FEF753FF08BD10B514
:1014B0004FF48000FFF7BDF830B101208B49087070
:1014C0008005FFF7ABF80AE04FF40010FFF7B1F822
:1014D00028B10120864908704005FFF79FF810BD2C
:1014E00000B58BB001210846FFF7D5FB814800907D
:1014F00081480190002002904FF40070039000207A
:1015000004908020059000200690079020200890ED
:10151000C001099000200A9069467848FFF724F836
:10152000FFF7B0FF012206217448FFF754F80121AC
:101530007248FFF744F8012240216E48001FFFF770
:101540001BFD0BB000BD10B500F0DAF8FFF7C8FFC7
:1015500010BD70477047024602F5FA6101F00300C2
:1015600080B94FF4C87091FBF0F300FB131028B161
:10157000642091FBF0F300FB131008B101207047C9
:101580000020FCE70020FAE72DE9FF4F81B08046FC
:101590008946164616B905B0BDE8F08F0C2E00DD61
:1015A000F9E7D8F800A0D8F80440D8F80850D8F8DF
:1015B0000C70D8F810B0D8F81400009004980028E7
:1015C00044D0B819182801D2374480E0B819A0F1E6
:1015D0001807012C09D0032C07D0052C05D0072CA7
:1015E00003D0082C01D00A2C06D11F2D01D26D1C6E
:1015F0006DE00125641C6AE0042C05D0062C03D0A4
:10160000092C01D00B2C06D11E2D01D26D1C5EE0E1
:101610000125641C5BE0022C0DD11D2D06D01C2D74
:1016200007D10AF0FF00FFF796FF10B90125641CEF
:101630004DE06D1C4BE00C2C49D11F2D01D26D1CCF
:1016400045E0012501240AF1010A40E0B74201D337
:10165000BF1B3CE007F11800871B022C09D0042CAB
:1016600007D0062C05D0082C03D0092C01D00B2C58
:1016700006D1012D01D96D1E29E01F25641E26E02B
:10168000052C05D0072C03D00A2C01D00C2C06D138
:10169000012D01D96D1E1AE01E25641E17E0032CD2
:1016A0000BD1012D07D10AF0FF00FFF754FF10B94D
:1016B0001C25641E0BE06D1E09E0012C07D1012DD5
:1016C00001D96D1E03E01F250C24AAF1010AC9F8F7
:1016D00000A0C9F80440C9F80850C9F80C70C9F84E
:1016E00010B00098C9F8140000BF54E72D00002086
:1016F0002C00002004440040600000206C000240E8
:1017000000B585B001210420FFF7D2FA0121480479
:10171000FFF7DBFA0420ADF8100018208DF8130055
:1017200003208DF8120004A97D48FFF705F8082072
:10173000ADF8100004208DF8130004A97848FEF7D6
:10174000FBFF4FF4165000900020ADF80400ADF8F8
:101750000600ADF80800ADF80C000C20ADF80A004A
:1017600069467048FFF74BFB01216E48FFF7D3FB3A
:1017700005B000BDF0B503460D46164600272946C4
:101780000A2E03D0002008702846F0BD33B930205F
:1017900001F8010B002008702846F6E7002B03DA59
:1017A0002D2001F8010B5B4242F210720DE093FB19
:1017B000F2F404B937B104F1300001F8010B04FB75
:1017C000123301270A2092FBF0F2002AEFDC0020FE
:1017D00008702846D9E710B553480078FF2811DA79
:1017E00040F225514F48FFF787FC58B14D48FFF7AD
:1017F00003FC4E494C4A127888544B480078401CF0
:101800004949087010BD01464748007808704748AC
:10181000704700204449087070470FB470B586B017
:1018200006460CA8019073E00B9800785C281CD148
:101830000B98401C0B9000786E2809D072280FD1AD
:101840000D213046FFF7D4FB0B98401C0B900BE0AA
:101850000A213046FFF7CCFB0B98401C0B9003E0AD
:101860000B98401C0B9000BF4BE00B98007825288C
:1018700040D10B98401C0B900078642818D0732836
:1018800033D1019810C801900BE021783046FFF762
:10189000AFFB00BF80213046FFF718FC0028F9D0CD
:1018A000641C20780028F0D10B98401C0B9020E09D
:1018B000019820C801900A2202A92846FFF75AFF82
:1018C00002AC0BE021783046FFF792FB00BF80218D
:1018D0003046FFF7FBFB0028F9D0641C2078002875
:1018E000F0D10B98401C0B9003E00B98401C0B9020
:1018F00000BF06E00B9810F8011B0B903046FFF775
:1019000077FB00BF80213046FFF7E0FB0028F9D0CD
:101910000B980078002887D106B070BC5DF814FBE6
:1019200000080140004400402E000020600200201A
:1019300008B54FF48060FEF707FD27208DF8000002
:1019400000208DF8010001208DF802008DF80300C1
:101950006846FEF7FEFC08BD10B586B004460121BE
:101960000820FFF7A5F901218804FFF7AEF94FF42D
:101970008060ADF8140018208DF8170003208DF852
:10198000160005A99248FEF7D7FE4FF40060ADF8A7
:10199000140004208DF8170005A98D48FEF7CCFE31
:1019A00001940020ADF80800ADF80A00ADF80C0075
:1019B000ADF810000C20ADF80E0001A98548FFF726
:1019C0001EFAFFF7B5FF012240F225518148FFF7CB
:1019D000AEFA01217F48FFF79EFA06B010BDF0B5C0
:1019E00003460D461646002729460A2E03D000203E
:1019F00008702846F0BD33B9302001F8010B0020F3
:101A000008702846F6E7002B03DA2D2001F8010BB9
:101A10005B4242F210720DE093FBF2F404B937B16D
:101A200004F1300001F8010B04FB123301270A20F6
:101A300092FBF0F2002AEFDC002008702846D9E77C
:101A400001466548007808706448704763487047ED
:101A50000021614A1170002003E000215F4A115407
:101A6000401CB0F5C87FF8DB70470FB4F0B585B007
:101A700007460CA800908AE00B9800785C281CD1DF
:101A80000B98401C0B9000786E2809D072280FD15B
:101A90000D213846FFF7ACFA0B98401C0B900BE079
:101AA0000A213846FFF7A4FA0B98401C0B9003E07C
:101AB0000B98401C0B9000BF62E00B980078252823
:101AC00057D10B98401C0B900078632804D06428F1
:101AD0002DD0732848D113E0009810F8041BCEB223
:101AE000009031463846FFF783FA00BF8021384620
:101AF000FFF7ECFA0028F9D00B98401C0B9037E068
:101B0000009810C800900BE021783846FFF770FA73
:101B100000BF80213846FFF7D9FA0028F9D0641CAD
:101B200020780028F0D10B98401C0B9020E0009802
:101B300020C800900A2201A92846FFF750FF01ACF7
:101B40000BE021783846FFF753FA00BF8021384672
:101B5000FFF7BCFA0028F9D0641C20780028F0D1E7
:101B60000B98401C0B9003E00B98401C0B9000BF9F
:101B700006E00B9810F8011B0B903846FFF738FA77
:101B800000BF80213846FFF7A1FA0028F9D00B9852
:101B9000007800287FF470AF05B0F0BC5DF814FB4E
:101BA00010B50D480078B0F5C87F10DA40F2255125
:101BB0000848FFF7A1FA50B10648FFF71DFAC1B275
:101BC00005480478601C044A10700448015510BD93
:101BD000000C0140004800402F0000205F0300205F
:101BE000294870470FB430B5ADF2044DFFF7F8FF48
:101BF0000568ADB10DF21440CDF8000440F2FF319C
:101C00006846DDF80034DDF8102401F013FE0446C8
:101C10000020CDF80004002C02DD21466846A847CC
:101C20000DF2044D30BC5DF814FB70B506460C4651
:101C3000FFF7D6FF05681DB114B121463046A8470D
:101C400070BD0FB430B5ADF2044DFFF7C9FF456864
:101C5000ADB10DF21440CDF8000440F2FF316846FA
:101C6000DDF80034DDF8102401F0E4FD0446002026
:101C7000CDF80004002C02DD21466846A8470DF28D
:101C8000044D30BC5DF814FB3000002010B5044654
:101C90004FF4B471204600F0DFFF201D00F0AAFFD2
:101CA000002020620120606210BD0000FEB50646E3
:101CB0000D4614460027062D06D0082D16D0092DF6
:101CC00015D00A2D28D113E004F11400011F0B1FB9
:101CD000FEA2CDE900102946304600F07AFE032826
:101CE00001D1012000E0002007461AE000BF00BF3C
:101CF00004F11800011F0A1F131FCDE900210290F3
:101D0000F5A22946304600F064FE042801D10120E6
:101D100000E00020074604E0F3A0FFF792FF002751
:101D200000BF00BF0FB10020FEBD4FF0FF30FBE74A
:101D300070B505460C46052C01DA002070BDF3484D
:101D400005220168284600F0A3FF08B90120F5E745
:101D5000EE4805224168284600F09AFF08B90220A3
:101D6000ECE7EA4805228168284600F091FF08B9AF
:101D70000420E3E7E5480522C168284600F088FF13
:101D800008B90820DAE7E14805220169284600F091
:101D90007FFF08B91020D1E70020CFE72DE9F047F9
:101DA00004460F46154604EB07080026B146701E90
:101DB000286029E02078242802D10EB1002425E0F3
:101DC00020782A281AD1601D404516D8E0780D28C1
:101DD00013D120790A2810D110220221601C00F0B2
:101DE00091FD2860601DA8EB00003E1A2868484558
:101DF00003D04FF0FF302860002407E016B12078B0
:101E000080EA0909641C761C4445D3D300BF2868C6
:101E1000002801DA04B100263046BDE8F087F0B5AD
:101E2000CDB005460E4614468021204600F014FF32
:101E300031462846FFF7F9FE04F1780004F17001FD
:101E400004F1680204F16003CDE90932CDE90B1019
:101E500020382039203A203BCDE90532CDE9071062
:101E60001C38011F183A183BCDE90132CDE90310A7
:101E70001C380DABA6A231460090284600F0A9FD03
:101E80000E2805D0AFA0FFF7DCFE00204DB0F0BD5E
:101E90000DA800F0ECFE0746224639460DA8FFF7D4
:101EA00005FF20B1ACA0FFF7CCFE0020EEE701203B
:101EB000ECE770B590B005460E461446502120461A
:101EC00000F0CAFE31462846FFF7AFFE04F1480194
:101ED00004F1400204F13803181FCDE90D320F91CF
:101EE0000C90011F0A1F131F1038CDE909320B9106
:101EF0000890011F0A1F131F1038CDE90532079102
:101F00000490011F0838021F231DCDE90032CDE9DE
:101F10000201234696A23146284600F05AFD1128B8
:101F200005D0A2A0FFF78DFE002010B070BD0120EB
:101F3000FBE72DE9F04192B00746884614465C2144
:101F4000204600F089FE41463846FFF76EFE04F158
:101F500058010A1F131F04F14800CDE90F321191F7
:101F60000E90011F0A1F131F1438CDE90B320D917B
:101F70000A90011F0A1F131F1438CDE90732099177
:101F80000690011F0A1F0C381C3BCDE90230CDE939
:101F900004210C38211D2346894ACDE90010414611
:101FA000384600F016FD06466068401E8500281D74
:101FB000A168814202DAA068401B00E004200546C7
:101FC000032000EB8505AE4201DB132E06DD7DA06C
:101FD000FFF737FE002012B0BDE8F0810120FAE7DC
:101FE0002DE9F041CEB006460F461446602120464A
:101FF00000F032FE39463046FFF717FE04F1590073
:10200000411E04F15002CDE90942CDE90B10201D1B
:10201000011D083A04F14003CDE90532CDE907106E
:1020200034302831203A203BCDE90132CDE903108C
:102030001C380EAB68A239460090304600F0C9FC4F
:1020400005460D2D08D00E2D06D070A0FFF7F9FD26
:1020500000204EB0BDE8F0810EA800F008FE8046DA
:10206000224641460EA8FFF721FE20B16CA0FFF7E3
:10207000E8FD0020EDE720685A2802DA2068643085
:1020800020606068401E60600120E2E770B588B0A3
:1020900005460E4614464021204600F0DDFD31463F
:1020A0002846FFF7C2FD04F1380004F1300104F1C5
:1020B000280204F12003CDE90332CDE905102038D0
:1020C0002039203A2346CDE90021B5E025326425A8
:1020D00032642532640000002532642532642532E2
:1020E000642E2564000000005061727365206F66E5
:1020F0002074696D65206572726F722028666F7238
:102100006D6174206572726F722921003C0000209D
:102110002447504747412C25732C25662C25432CFA
:1021200025662C25432C25642C25642C25662C251E
:10213000662C25432C25662C25432C25662C2564EE
:102140002A000000475047474120706172736520A4
:102150006572726F722100004750474741207469D1
:102160006D65207061727365206572726F722100F7
:102170002447504753412C25432C25642C25642C9F
:1021800025642C25642C25642C25642C25642C25A1
:10219000642C25642C25642C25642C25642C256452
:1021A0002C25662C25662C25662A000047504753AF
:1021B00041207061727365206572726F7221000038
:1021C000984200084750475356207061727365204B
:1021D0006572726F72210000244750524D432C25C6
:1021E000732C25432C25662C25432C25662C254352
:1021F0002C25662C25662C25326425326425326414
:102200002C25662C25432C25432A00004750524D8F
:1022100043207061727365206572726F72210000D5
:102220004750524D432074696D652070617273652B
:10223000206572726F7221000290A6A23146284674
:1022400000F0C7FB082805D0AAA0FFF7FAFC002081
:1022500008B070BD207A54280AD1207E4D2807D1BD
:1022600094F828004E2803D194F838004B2804D065
:10227000A5A0FFF7E6FC0020EAE70120E8E7C36835
:102280000B6103694B6143698B618369CB61C26BED
:102290000A62D0E91223C1E90C23D0E91423C1E971
:1022A000142390F828204E2A02D1D0E9082303E015
:1022B000D0E9082383F00043C1E9102390F83820C7
:1022C000452A02D1D0E90C2303E0D0E90C2383F0A6
:1022D0000043C1E912230A6842F001020A60704714
:1022E000F0B5002445684D62D0E90E56C1E90A56A2
:1022F000D0E91056C1E90C56D0E91256C1E90E5684
:10230000002220E000231AE000F1080555F82250D1
:10231000A5B100F1080555F8226003EB830701F130
:10232000780555F82750AE4208D1012603EB830704
:1023300001F1780505EB87056E60641C5B1C4D6F31
:102340009D42E1DC521C0C2ADCDB0C670D6845F079
:1023500002050D60F0BDF0B5D0E90065B54204DCC2
:102360000C264568B6EB850F00DAF0BD4568012DF7
:1023700001DA0125456086684E6745686D1EAC0030
:10238000251D8668AE4202DA85682D1B00E0042513
:102390002C4600223AE045686D1E02EB850302EBF5
:1023A000820600F10C0555F8266003EB830701F166
:1023B000780545F8276002EB820600F10C0505EB75
:1023C000860503EB8307AE6801F1780505EB870509
:1023D000AE6002EB820600F10C0505EB860503EB0F
:1023E0008307EE6801F1780505EB8705EE6002EBE7
:1023F000820600F10C0505EB860503EB83072E69C9
:1024000001F1780505EB87052E61521CA242C2DB63
:102410000D6845F004050D6000BFA6E72DE9F04109
:1024200005460C46287F412809D1206A08B90220B8
:102430002062606A012809D10220606206E0287FDC
:10244000562803D100202062012060621C22294608
:10245000201D00F0E8FB95F828004E2802D1D5E9B0
:10246000080103E0D5E9080181F00041C4E9100149
:1024700095F83800452802D1D5E90C0103E0D5E9EB
:102480000C0181F00041C4E91201284A284BD5E92A
:102490001061304600F0E8FCC4E91601D5E91201EC
:1024A000C4E91801206840F008002060BDE8F08110
:1024B000D0E90023C1E91823D0E90423C1E91A2394
:1024C000D0E90C23C1E916230A6842F010020A6021
:1024D000704700002447505654472C25662C25434E
:1024E0002C25662C25432C25662C25432C25662C73
:1024F00025432A0047505654472070617273652067
:102500006572726F72210000475056544720706107
:10251000727365206572726F722028666F726D61CA
:1025200074206572726F7229210000006F1283C0DF
:10253000CAA1FD3F70B504460026FFF751FB856830
:10254000FF2D01DC4FF480751421204600F084FB40
:10255000284601F019FEA06018B9DEA0FFF771FB54
:1025600001E0E5600126304670BD70B505460026E5
:102570002C6874B1606810B1606801F0DDFD2668F8
:10258000A0682860286808B900206860204601F02B
:10259000D3FD304670BD10B5044602E02046FFF77B
:1025A000E4FF20680028F9D1012010BD10B50446D1
:1025B000A06801F0C1FD2046FFF7EDFF1421204681
:1025C00000F04AFB10BD2DE9F04104460E460027FD
:1025D00025685DB1686830602F68A8682060206851
:1025E00008B900206060284601F0A6FD3846BDE825
:1025F000F081014600200861012070472DE9F84F65
:1026000005468A4690460026002428694044E96829
:10261000884202DB2846FFF7ECFF2A69A968881880
:102620004246514600F0FFFA28694044286100BF45
:102630002A69911BAA6890196A46FFF7AFFB074603
:1026400057B946B12B699B1B1A462B61AB68991988
:10265000184600F0E8FAC2E00098002873DB2A6907
:10266000921B511EAA683244501CFFF761FB814641
:102670000C2001F089FD040000D1B4E0002060606E
:10268000B9F1040F44D006DCB9F1010F0AD0B9F159
:10269000020F74D121E0B9F1080F55D0B9F1100F34
:1026A000F7D16DE0802001F06FFD606000B99AE025
:1026B000012020606268A96888193946FFF7AFFBDE
:1026C00050B9606820B1606801F036FD002060609C
:1026D000204601F031FD002472E0502001F054FD4D
:1026E000606000B97FE0022020606268A9688819F4
:1026F0003946FFF7DEFB50B9606820B1606801F031
:102700001BFD00206060204601F016FD002457E00C
:102710005C2001F039FD606000B964E004202060B5
:102720006268A96888193946FFF703FC50B96068E8
:1027300020B1606801F000FD00206060204601F0DB
:10274000FBFC00243CE047E0602001F01DFD6060E0
:1027500000B948E0082020606268A96888193946F5
:10276000FFF73EFC50B9606820B1606801F0E4FCFE
:1027700000206060204601F0DFFC002420E01AE029
:10278000402001F001FD606000B92CE010202060C5
:102790006268A96888193946FFF778FC50B9606803
:1027A00020B1606801F0C8FC00206060204601F0A4
:1027B000C3FC002404E0204601F0BEFC002400BF5E
:1027C00000BF4CB1686808B1686884606C602868B4
:1027D00000B92C600020A0603E44002428E700BF20
:1027E0003046BDE8F88F14B1204601F0A5FC39A0B1
:1027F000FFF727FA4FF0FF30F3E72DE9F0410546E8
:1028000088461446002700BFE868A04201DAEE6857
:1028100000E02646324641462846FFF7EFFE0744D1
:10282000A41B002CF0D13846BDE8F0812DE9F84317
:102830000746884691461D460026002000904A46DD
:1028400041463846FFF7D9FF2AE0761C042C14D005
:1028500004DC012C07D0022C1ED109E0082C11D079
:10286000102C19D113E029460098FFF708FD13E05A
:1028700029460098FFF734FD0EE029460098FFF73F
:102880006AFD09E029460098FFF7C8FD04E02946E3
:102890000098FFF70DFE00BF00BF009801F04CFC50
:1028A00069463846FFF78FFE0400CED13046BDE8BA
:1028B000F883014600200A6802B11068704710B51D
:1028C00002460B460020116811B14C681C60086874
:1028D00010BD0000496E73756666696369656E7444
:1028E000206D656D6F7279210000000010B5024601
:1028F0000B460020002102E0545C6040491C9942D4
:10290000FADB10BDF0B5C1B005460C4616460027EF
:10291000FF2C0DDC22462946684600F084F9002091
:102920000DF80400324640A9684600F0BEF907469B
:10293000384641B0F0BDF0B5C1B007460C460021A5
:102940000D460E46FF2C0DDC22463946684600F047
:102950006AF900200DF8040040A9684601F04AFC1D
:1029600005460E462846314641B0F0BD0FB42DE96C
:10297000F84306460D460027002D04DC0020BDE884
:10298000F8035DF814FB0BA8009029463046009B25
:102990000A9A00F04FFF0446002C0BDD611E701CEC
:1029A000FFF7A4FF8046291B301943468FA200F091
:1029B0002DFF07463C44002C01DBAC4205DD202204
:1029C0002946304600F041F92C4600200090204670
:1029D000D5E70FB42DE9FF5F04468B4604EB0B08E7
:1029E0000120029000264FF000090020019082464D
:1029F000009011A80390EAE00298012806D002286E
:102A000013D0032817D004280ED12BE0109800789B
:102A1000252802D10220029006E014F8011B10982C
:102A20000078814200D0D9E0CDE00026DDF840906A
:102A30000320029000BF00F0E9F8006810990978BF
:102A4000405C202800D1BEE0042002901098484548
:102A500007D91098A0EB09010A224846FFF752FF58
:102A6000064600BF27466EB910980078632803D049
:102A700010980078432805D1207810994978884229
:102A800000D001262EB1A019404501D834440DE0F4
:102A9000A4E01098407840B1A8EB04021098417867
:102AA000204600F0EBF8040000D14446444500D92C
:102AB00094E0012002900098401C00900025E61B45
:102AC00010980078632812D008DC432810D04528DD
:102AD00028D0472824D0532830D112E0652820D0B0
:102AE00066281BD067281AD0732827D108E000BFBA
:102AF000039820C8039016B10DB1387828701DE0F6
:102B000000BF039820C803903EB135B13246394624
:102B1000284600F088F80020A8550FE000BF00BF4D
:102B200000BF00BF039820C8039036B12DB13146D5
:102B30003846FFF700FFC5E9000100BF00BF05B13F
:102B400041E0039802C80D00039000D13BE006B9B4
:102B500039E0109800786F2829D006DC58281DD05D
:102B6000642807D069282BD105E075280CD0782877
:102B700026D112E000BF0A2231463846FFF7C2FED6
:102B80000190019828601CE00A2231463846FFF780
:102B9000B9FE8246C5F800A013E000BF10223146FE
:102BA0003846FFF7AFFE8246C5F800A009E00822CC
:102BB00031463846FFF7A6FE8246C5F800A000E081
:102BC0000CE000BF00BF00BF1098401C1090109890
:102BD000007810B14445FFF40FAF00BF0020039010
:102BE000009804B0BDE8F01F5DF814FB2A253032D0
:102BF000780D0A007221016000214160012181608D
:102C00000021C160016141618161704700487047E6
:102C10009442000810B50446FFF7F8FF0068005D15
:102C200000F0010010BD40EA01039B0703D009E05A
:102C300008C9121F08C0042AFAD203E011F8013BA8
:102C400000F8013B521EF9D27047D2B201E000F801
:102C5000012B491EFBD270470022F6E710B5134640
:102C60000A4604461946FFF7F0FF204610BD421CF5
:102C700010F8011B0029FBD1801A7047CBB203E08A
:102C80000178994203D0401C521EF9D200207047AF
:102C900030B504460020034600E05B1C934203D29B
:102CA000E05CCD5C401BF8D030BD2DE9F04791468B
:102CB0000F4680460446002614F8015B2DB1FFF74D
:102CC000A5FF0068405DC007F6D12B2D02D02D2D49
:102CD00018D0641E4A463946204600F037FA27B11C
:102CE0003968A14201D1C7F8008071054FF0020494
:102CF0000BD54042002803DD00F0AEFD0460A007C4
:102D0000BDE8F08746F48066E4E70028F8DA00F0D2
:102D1000A3FD04606FF00040F2E72DE9FE4F80460E
:102D200081EA0300C00F0C46009021F0004123F01F
:102D30000045B8EB0200A94105D240462146904625
:102D40001C460B46024623F00040104347D0270D97
:102D5000C7F30A00C3F30A510290401A01904028B9
:102D60006BDAC3F3130040F4801B0098924620B145
:102D70000023D2EB030A63EB0B0B01985946C0F119
:102D80004002504600F0B1F906460D4650465946FD
:102D9000019A00F0C9F910EB08006141002487EAAC
:102DA000115284EAE7731A4340D0009A62B3019A41
:102DB000012A4FEA075215DC001B61EB02014FF0BC
:102DC000004202EA0752CDE90042001C41F58011A1
:102DD00032462B4600F067FA03B0BDE8F08F40465C
:102DE0002146F9E7001B61EB0201001C41F580134D
:102DF00000185B412018A2F5001747EB030140EAD9
:102E0000D570B6196D4111E06D084FEA360645EAF6
:102E1000C0754FEA0752001B61EB0201001C41F52F
:102E2000801149084FEA30000019514132462B46C3
:102E300003B0BDE8F04F00F027BA0098012240002F
:102E40000023D0EB020263EBE073009821464FEAC7
:102E5000E074B8EB000061EB0401E9E783F00043A4
:102E60005BE781F0004158E72DE9FE4F81EA03045A
:102E700004F0004421F0004100944FF0000B23F0D7
:102E8000004350EA01045ED052EA03045BD0C3F36E
:102E90000A54C1F30A552C44A4F2F3340194A0FB64
:102EA0000254C1F3130141F48011C3F3130343F43B
:102EB000801301FB024400FB034E840A970A44EA94
:102EC000815447EA8357A4FB076802958D0A05FBE6
:102ED00007854FEA932C04FB0C542705029D4FEA0B
:102EE000065847EA1637B5EB08056EEB070C870E58
:102EF000920E47EA811742EA8312A7FB0201B6EB62
:102F00000B0164EB00042B0D43EA0C335E1844EB19
:102F10001C50DA465146E7FB0201C5F313044FEAA1
:102F20000B3343EA14534FEA0432019C43EA06038D
:102F3000A4F10C040294009CCDE900B400F0B3F9B4
:102F400003B0BDE8F08F00200146F9E72DE9F04D10
:102F500081EA030404F0004B21F0004514464FF0D1
:102F6000000A23F0004150EA050220D054EA010291
:102F70001DD0C5F30A570246C5F31303C1F313006E
:102F8000C1F30A5640F4801543F48013A7EB0608FA
:102F9000101BD64608F2FD3873EB050002D308F18A
:102FA000010801E092185B41B8F1000F03DA00203C
:102FB0000146BDE8F08D00204FF48011064684469E
:102FC0000EE0171B73EB050705D3121B63EB05031C
:102FD00006434CEA010C49084FEA300092185B4165
:102FE00050EA0107EDD152EA030012D082EA040050
:102FF00083EA0501084305D0101BAB4106D201222C
:10300000002306E000224FF0004302E06FF00102CF
:1030100053101AEB06004CEB085110EB0A0041EB81
:103020000B01BDE8F04D00F02FB9000030B5041ED3
:1030300071F1000404DB4FF00044404264EB0101F5
:10304000141E73F1000405DB1C464FF0004352428E
:1030500063EB0403994208BF904230BD30B50B4684
:10306000014600202022012409E021FA02F59D42B8
:1030700005D303FA02F5491B04FA02F52844151E8C
:10308000A2F10102F1DC30BD2DE9F05F0546002020
:1030900092469B4688460646814640241BE02846C9
:1030A00041464746224600F02FF853465A46C01A7A
:1030B000914110D311461846224600F016F82D1AF9
:1030C00067EB01084F4622460120002100F00DF871
:1030D00017EB00094E41201EA4F10104DFDC484635
:1030E00031462A464346BDE8F09F202A04DB203AB9
:1030F00000FA02F1002070479140C2F1200320FA4B
:1031000003F3194390407047202A04DB203A21FA48
:1031100002F00021704721FA02F3D040C2F12002F0
:103120009140084319467047202A06DBCB17203A06
:1031300041FA02F043EAE07306E041FA02F3D040BC
:10314000C2F1200291400843194670472DE9F05F13
:1031500082460078002715468B460AF10104B946DD
:10316000302801D09DB113E014F8010B0127782815
:1031700003D0582801D045B10AE00DB1102D07D178
:103180000027102514F8010B02E0082500E00A25AD
:103190000026B0460EE005FB080005FB06F10127FE
:1031A00001EB10461FFA80F8B6F5803F00D3B94610
:1031B00014F8010B294600F0EFF80028EBDABBF118
:1031C000000F05D00FB1641E00E05446CBF800405C
:1031D000B9F1000F06D000F03FFB02210160C81ECC
:1031E000BDE8F09F48EA0640FAE700000FB400236C
:1031F00000B589B00CA900910B996FF00042CB602B
:103200001E4B06931E4B07930423CDE901321D4A42
:10321000089202466B46002000F04CF909B05DF8B8
:1032200014FB70B586B006464FF0FF300091CDE933
:103230000101002015460C4604903246694604A858
:10324000FFF7D4FF03460498211825B108B10A46B8
:1032500000E022462A6000280DD0002B02DD0098F5
:10326000884208D0081B0094CDE901043246694623
:1032700004A8FFF7BBFF06B070BD0000ED360008E4
:103280000B370008152C000810B5141E73F100044C
:1032900008DA401C41F1000192185B411A4301D148
:1032A00020F0010010BD2DE9F04D92469B4611B172
:1032B000B1FA81F202E0B0FA80F220329046FFF7D4
:1032C00014FF04460F4640EA0A0041EA0B01534648
:1032D0005A46084313D0114653EA010019D0C8F1E9
:1032E00040025046FFF710FF05460E46504659462D
:1032F0004246FFF7FAFE084305D0012004E02046CD
:103300003946BDE8F08D0020054346EAE0762C43BF
:1033100037430A986305E40AA0EB08000022FD0A7F
:1033200044EA47540A3002D500200146E9E7010586
:1033300010196941DDE9084500196941BDE8F04D02
:10334000A2E7C1F30A52C1F3130140F2FF3341F483
:1033500080119A4202DA00200146704740F233435E
:103360009A42A2F2334202DC5242FFF7CDBEFFF78F
:10337000BCBE0000064C074D06E0E06840F00103CB
:1033800094E8070098471034AC42F6D3FCF7D4FE1B
:1033900004430008244300083A2800D2303820F0C3
:1033A0002002412A01D3A2F13700884201D34FF015
:1033B000FF3070472DE9FF4F087881B09946FF280C
:1033C00005D0491C2D2804D00024002308E0002348
:1033D0000BE00124F9E703EB830300EB4303491CF3
:1033E0000878FF28F7D104B15B42002000901478E0
:1033F00001462D2C01D02B2C04D1521C2D2C12D087
:103400000024009400251678FF2E0ED00A24A0FB7D
:1034100004C801FB0481002700FB0711521C16EBB6
:103420000C006941EFE70124EBE7994450EA0102FF
:103430000ED00024AA4D2646DFF8A88200F076F9C7
:1034400082468B46B9F1000009DAC9F100071BE09A
:1034500001980021C0E9001105B0BDE8F08F0746D2
:1034600012E0F80707D022462B4630464146FFF7C8
:10347000FBFC0646884622462B4610461946FFF7B7
:10348000F3FC04460D467F10002FEAD1B9F1000F7E
:10349000324643465046594602DAFFF757FD01E0EF
:1034A000FFF7E2FC009A0AB181F00041019AC2E9FB
:1034B0000001D1E72DE9FF4F1F468DB0D7E9014646
:1034C0004FF0FF382E2045464FF000090B90B969A8
:1034D0006D1C0E988847396A824688470028F6D1C5
:1034E000BAF1FF3F0AD024F4D064002E11DDBAF106
:1034F0002B0F08D0BAF12D0F0BD102E0404611B0CE
:10350000ABE744F48064B9696D1C0E988847824625
:10351000761E6946600501D52D2000E02B208DF830
:10352000000001F1010B0DF1200809E0B9696D1CE3
:103530000E98884782460F9844F40074761E056002
:10354000002E02DDBAF1300FF0D00B998A453ED142
:1035500044F0800406E00F99681CA9F1010944F4C5
:1035600000740860B9696D1C761E0E988847824603
:103570003028F0D02BE00B998A4505D1200603D4E2
:1035800044F08004761E18E0504600F02BFA08B391
:103590000DF11301761E44F400748B4508D2AAF194
:1035A00030000BF8010B200607D5A9F1010003E05C
:1035B000200602D409F101008146A00502D50F9929
:1035C000681C0860B9696D1C0E9888478246002EF9
:1035D000D1DC53E0002E51DDBAF1650F02D0BAF113
:1035E000450F4BD1A00549D5B9696D1C24F4407431
:1035F000761E0E9888478246002E0CDD2B2804D0BC
:10360000BAF12D0F07D144F48074B9696D1C0E987E
:1036100088478246761EE00501D52D2100E02B214A
:1036200008F8011BCDF82C8021E00DF12901761E50
:1036300044F4007488450CD2AAF1300010F0FF0069
:1036400088F8000002D10B99884509D908F10108D2
:1036500006E0E00501D5244801E042F20F70814602
:10366000B9696D1C0E98884782460F980560002E38
:1036700004DD504600F0B6F90028D6D1F9690E985D
:103680008847FF208BF8000088F800000020069093
:1036900007904B466A4608A906A8FFF78BFEA005CF
:1036A00002D46FF001002AE714F0240F0AD0E007DB
:1036B00014D1DDE906123868031D3B600068C0E9DB
:1036C00000120BE0DDE9060100F03CF80146E007DE
:1036D00004D13868021D3A600068016028460EE790
:1036E000000024400000F03FF1D8FFFF426842B1E3
:1036F000016811F8013B23B1521EC0E900121846BF
:1037000070470121C160881E704742685AB1C36882
:10371000016843B983688B4205D0491E521CC0E939
:103720000012002070474FF0FF3070470EB540F296
:10373000334202920022CDE900221346FFF7B3FD87
:1037400003B000BD01F0004330B421F0004150EA65
:10375000010206D00A0DA2F56072C1F31301002A1E
:1037600002DC30BC00207047440F44EAC104C100B1
:10377000E01830BC00EBC250AFF300800029A8BFB6
:103780007047401C490008BF20F00100704710B48A
:10379000B0FA80FC00FA0CF050EA010404BF10BC3F
:1037A000704749B1CCF1200421FA04F411FA0CF16C
:1037B00018BF012121430843A3EB0C01CB1D4FEAA5
:1037C00000614FEA102042BF002010BC704700EBA0
:1037D000C35010440029A4BF10BC7047401C4900CE
:1037E00008BF20F0010010BC704700000FB4054B6B
:1037F00010B503A9044A029800F0FCF810BC5DF86B
:1038000014FB0000AF130008500000200FB41CB5DB
:103810000A46521ECDE9000207A9054B6A460698E2
:1038200000F0E8F8009A002111701CBC5DF814FB50
:10383000234100087CB5491E1C461546CDE9000110
:10384000044B6A462146284600F0D4F8009A00212D
:1038500011707CBD23410008004870475C000020C7
:1038600002E008C8121F08C1002AFAD17047704749
:10387000002001E001C1121F002AFBD170470000A7
:103880002DE9FF5FDDE90220010DDDF838B00243CC
:1038900018D044F61050A1F2FF3141430D140F9897
:1038A000012820D0A5EB0B00401C5FEA000A4FF076
:1038B0000004474EDFF81C91A046504616D5CAF1C9
:1038C000000728E00F98012443A2012808D0002116
:1038D00000980F9BC0E90021C0E90243BDE8FF9FAB
:1038E0006FEA0B01F4E7CBF10000DEE7074612E0D8
:1038F000F80707D02246334640464946FFF7B4FA58
:10390000804689462246334610461946FFF7ACFAF0
:1039100004460E467F10002FEAD1DDE90201BAF11C
:10392000000F42464B4602DAFFF79EFA01E0FFF72E
:103930000DFB04460E460022284BFFF777FB03D809
:103940004FF0FF30014607E00022254B204631466C
:10395000FFF7E3F9FFF7F5FC102409E0002C0ADB80
:103960000A220023FFF790FB019B30321A55641E98
:1039700050EA0102F2D1641C019AC4F1110314440B
:103980000F9A012A03D0012208430DD10AE008430F
:1039900004D000204FF0110B0F9080E7A3EB0B0534
:1039A0006D1E0DE05B4504DD4FF0000205F10105E1
:1039B00004E003DA4FF00002A5F10105002AECD083
:1039C00000980F99C0E90231C0E9004586E7000080
:1039D000000024400000F03F300000000000F043F1
:1039E0000000E03F30380A2801D201207047002053
:1039F000704700002DE9FF4F95B09B46894606466B
:103A000000250FE2252877D100242746F84A012116
:103A1000059400E0044316F8013F203B01FA03F04F
:103A20001042F7D130782A2811D06FF02F03307868
:103A3000A0F13002092A16D8059A44F0020402EBDC
:103A4000820203EB42021044761C0590EFE759F81E
:103A5000042B0592002A03DA504244F400540590E6
:103A600044F00204761C30782E2816D116F8010F87
:103A700044F004042A280DD06FF02F023078A0F112
:103A80003003092B09D807EB870302EB4303C71860
:103A9000761CF3E759F8047B761C30786C280FD03D
:103AA00006DC4C2817D068280DD06A2814D104E011
:103AB000742810D07A280FD10DE044F400140AE0E5
:103AC00044F4801401E044F440147278824202D13C
:103AD00004F58014761C761C307866280BD013DC35
:103AE000582877D009DC002875D04528F6D046281C
:103AF000F4D047281AD19DE118E0632835D0642816
:103B000079D0652812D195E1702873D008DC672838
:103B1000F1D069286FD06E280DD06F2806D1B5E09E
:103B200073282CD0752875D0782874D05A461799E8
:103B300090476D1C75E1C4F30250022809D0032898
:103B40000DD0D9F8001004280DD00D6009F104093A
:103B500067E1D9F80010EA17C1E90052F6E7D9F891
:103B600000100D80F2E70D70F0E719F8041B8DF8D6
:103B7000001000208DF80100EA46012003E059F80A
:103B800004AB4FF0FF3061074FF0000102D40DE0AD
:103B900008F101018846B9420FDA8045F8DB1AF8CE
:103BA00008100029F4D108E008F10101884681429B
:103BB000FADB1AF808100029F6D105985B46A0EB4D
:103BC000080721463846179A00F094FA284400EB7B
:103BD000080507E04DE029E10DE01AF8010B5A460F
:103BE00017999047B8F10108F7D25B46214638464D
:103BF000179A13E142E00A220092C4F302524FF0F6
:103C0000000A022A08D059F804CB032A4FEAEC71C3
:103C10000AD00DE029E02AE009F1070121F00702AE
:103C2000F2E802C1914609E00FFA8CFC4FEAEC7110
:103C3000042A03D14FFA8CFC4FEAEC71002907DA11
:103C40000A460021DCF1000C61EB02012D2202E0AA
:103C5000220504D52B228DF80420012203E0E2077F
:103C600001D02022F7E7904659E00A2102E0102215
:103C70000DE010214FF0000A00910BE010224FF0F0
:103C8000000A44F004040827009203E008224FF0E1
:103C9000000A0092C4F30252022A05D059F804CB5C
:103CA0000021032A08D009E009F1070121F00702E9
:103CB000F2E802C1914605E01FFA8CFC042A01D10A
:103CC0000CF0FF0C4FF00008220728D5702806D012
:103CD000009B83F0100353EA0A0305D00EE0402254
:103CE0008DF80420012208E05CEA010206D03022AF
:103CF0008DF804208DF8050002229046009B83F089
:103D0000080353EA0A030AD15CEA010201D16207FF
:103D100005D530228DF804204FF001087F1E582869
:103D200004D034A003900EA802900DE036A0F9E76D
:103D300053466046009AFFF7A7F984460398825CD1
:103D40000298401E029002705CEA0100F0D10298D5
:103D500006A9081A00F1200A600702D524F480346D
:103D600000E00127574502DDA7EB0A0000E0002034
:103D700000EB0A01009005984144401A0590E003C9
:103D800006D45B462146179A059800F0B3F905441E
:103D9000002706E001A85A46C05D179990476D1CA0
:103DA0007F1C4745F6DBE0030CD55B462146179A9E
:103DB000059800F09FF9054404E030205A46179911
:103DC00090476D1C0099481E00900029F5DC08E022
:103DD000029802995A460078491C02911799904717
:103DE0006D1CBAF10001AAF1010AF1DC65E10000E5
:103DF00009280100303132333435363738396162C1
:103E00006364656600000000303132333435363784
:103E100038394142434445460000000000F058F95B
:103E20000544761C307800287FF4ECAD19B02846A4
:103E3000BDE8F08F620700D4062709F1070222F0DF
:103E4000070CFCE80223E14603F000485FEA080C97
:103E500002D00FF2702C0DE05FEA045C02D50FF285
:103E6000682C07E05FEAC47C02D00FF2602C01E00E
:103E7000AFF2700C4FF0FF3823F00043CDF850C084
:103E800065280CD006DC452809D046281DD04728D7
:103E90003DD13DE0662818D067287ED138E000216A
:103EA000112F01DB112000E0781CCDE9000106A9EB
:103EB0000EA8FFF7E5FCDDE90F010E9A0391002142
:103EC000009207F1010A04914DE04FF00040009785
:103ED000CDE9011006A90EA8FFF7D2FCDDE90F021B
:103EE00003920E9B11990022DDF80CA0009304921E
:103EF00011B9791C00EB010AB7EB0A0004D4C0F138
:103F0000FF3007F1010A0490AAEB0700019044E09A
:103F1000012F00DA01270021112F01DD112000E01F
:103F20003846CDE9000106A90EA8FFF7A9FCDDE996
:103F30000F010E9A0391002104910092BA462107C5
:103F40000CD40399514500DA8A46BAF1010F05DD18
:103F5000009AAAF10101515C302908D0B84202DA76
:103F600010F1040F06DA0121CDE9011015E0AAF1E4
:103F70000101E9E7002805DC049901440491AAEB5A
:103F8000000102E0411C514500DD8A460499401AB7
:103F9000401C01904FF000400290200704D401988B
:103FA000504501DBCDF8048000208DF84F000298C9
:103FB0000DF14F07B0F1004F25D02B200E90029845
:103FC0004FF0020800280CDA404202902D200E909B
:103FD00007E00A210298FFF741F83031029007F814
:103FE000011DB8F10001A8F10108F2DC02980028D7
:103FF000EFD1791E0E980870307800F0200040F064
:10400000450007F8020D12A8C01B00F1070814981C
:10401000007800B1012000EB0A01019801EBE0718A
:1040200005984144401A401E0590E00306D45B46C3
:104030002146179A059800F05DF805441498007819
:1040400018B15A46179990476D1CE00324D55B467A
:104050002146179A059800F04DF805441CE0049895
:10406000002807DBDDE90301884203DD0098405C9E
:10407000179901E0179930205A469047049805F1A6
:104080000105401C04900198401E019004D12E208F
:104090005A46179990476D1CBAF10001AAF1010A1E
:1040A000DDDC05E017F8010B5A46179990476D1CA7
:1040B000B8F10001A8F10108F4DC5B462146179A2B
:1040C0000598ABE62D0000002B000000200000004A
:1040D0002DE9F041044600251E461746880404D405
:1040E00005E039462020B0476D1C641EF9D52846EE
:1040F000BDE8F0812DE9F041044600251E469046BA
:10410000C80301D5302700E02027880404D505E046
:1041100041463846B0476D1C641EF9D52846BDE8B7
:10412000F0814A68002A06D00A68531C0B601070A0
:104130004868401E4860704710B5002821D0114BD8
:104140000022001F196803E0814203D80A4649682B
:104150000029F9D152B11368841A9C4204D1006835
:1041600018441060104602E0506000E0186039B159
:1041700002680B1A934203D10B681A440260496823
:10418000416010BD54000020F0B50B30154D20F0FB
:1041900007010024144A0FE003688B420BD38B42C3
:1041A00005D95E1A43184768C3E9006700E0436811
:1041B000136002C004E0021D10680028ECD1204604
:1041C000002802D1286808B10020F0BD064A07483F
:1041D0001060074A121A22F00702C0E900240120E9
:1041E0002860D7E75800002054000020F404002085
:1041F000F014002000B583B00A460021CDE900117B
:1042000001466846FFF70DF8DDE9000103B000BD87
:1042100000404040404040404040414141414140D9
:10422000404040404040404040404040404040408E
:10423000400502020202020202020202020202021D
:104240000220202020202020202020020202020222
:10425000020290909090909010101010101010107A
:104260001010101010101010101010100202020286
:1042700002028888888888880808080808080808CA
:1042800008080808080808080808080802020202C6
:1042900040000000114200082447504753562C2587
:1042A000642C25642C25642C25642C25642C256421
:1042B0002C25642C25642C25642C25642C25642C49
:1042C00025642C25642C25642C25642C25642C2540
:1042D000642C25642C25642A0000000047504747C1
:1042E0004100000047504753410000004750524DE5
:1042F00043000000475056544700000047504753C2
:104300005600000024430008000000206000000068
:104310006038000884430008600000209018000006
:104320007038000800A24A040000000000000000ED
:10433000010203040607080900000000010203044B
:104340000102030406070809020406080000000031
:104350000000000000000000000000000004000059
:10436000DC420008E4420008FC420008EC4200087D
:10437000F4420008000000000000000000000000FF
:044380000000000039
:0400000508000131BD
:00000001FF
